{
  "transactions": [
    {
      "hash": "0x0f3d98189fe71e508caaf63178ed0e2074fb91fb355549e978e1c0cb594b695a",
      "transactionType": "CALL",
      "contractName": null,
      "contractAddress": "0xc189cdfaa1ec9840c195cd8686651b321f412c79",
      "function": "applyChainUpdates(uint64[],(uint64,bytes[],bytes,(bool,uint128,uint128),(bool,uint128,uint128))[])",
      "arguments": [
        "[]",
        "[(16015286601757825753, [0x000000000000000000000000a2f31a7600b03fb947e6cb27cfc3b7e6d92e4cfd], 0x00000000000000000000000007be491c4626a052cd583413021ce2ce6c0450f7, (false, 0, 0), (false, 0, 0))]"
      ],
      "transaction": {
        "from": "0x70f33e33c1108844cd0315865c6d4cc38df027f3",
        "to": "0xc189cdfaa1ec9840c195cd8686651b321f412c79",
        "gas": "0x6dafe",
        "value": "0x0",
        "input": "0xe8a1da1700000000000000000000000000000000000000000000000000000000000000400000000000000000000000000000000000000000000000000000000000000060000000000000000000000000000000000000000000000000000000000000000000000000000000000000000000000000000000000000000000000000000000010000000000000000000000000000000000000000000000000000000000000020000000000000000000000000000000000000000000000000de41ba4fc9d91ad9000000000000000000000000000000000000000000000000000000000000012000000000000000000000000000000000000000000000000000000000000001a0000000000000000000000000000000000000000000000000000000000000000000000000000000000000000000000000000000000000000000000000000000000000000000000000000000000000000000000000000000000000000000000000000000000000000000000000000000000000000000000000000000000000000000000000000000000000000000000000000000000000000000000000000000000000000000000000000000000000000000000000000000000000000000000000000000000000000000000000000000000000000000000000000000000000000100000000000000000000000000000000000000000000000000000000000000200000000000000000000000000000000000000000000000000000000000000020000000000000000000000000a2f31a7600b03fb947e6cb27cfc3b7e6d92e4cfd000000000000000000000000000000000000000000000000000000000000002000000000000000000000000007be491c4626a052cd583413021ce2ce6c0450f7",
        "nonce": "0xe",
        "chainId": "0x14a34"
      },
      "additionalContracts": [],
      "isFixedGasLimit": false
    }
  ],
  "receipts": [
    {
      "status": "0x1",
      "cumulativeGasUsed": "0x1ca2e8",
      "logs": [
        {
          "address": "0xc189cdfaa1ec9840c195cd8686651b321f412c79",
          "topics": [
            "0x7d628c9a1796743d365ab521a8b2a4686e419b3269919dc9145ea2ce853b54ea",
            "0x000000000000000000000000000000000000000000000000de41ba4fc9d91ad9"
          ],
          "data": "0x00000000000000000000000000000000000000000000000000000000000000200000000000000000000000000000000000000000000000000000000000000020000000000000000000000000a2f31a7600b03fb947e6cb27cfc3b7e6d92e4cfd",
          "blockHash": "0x71a15e214851a6ca69589492d1a1d884d3bf95c6d63a58e97b6ffaef9a5b75af",
          "blockNumber": "0x21fe94d",
          "blockTimestamp": "0x6953317a",
          "transactionHash": "0x0f3d98189fe71e508caaf63178ed0e2074fb91fb355549e978e1c0cb594b695a",
          "transactionIndex": "0x9",
          "logIndex": "0x15",
          "removed": false
        },
        {
          "address": "0xc189cdfaa1ec9840c195cd8686651b321f412c79",
          "topics": [
            "0x8d340f17e19058004c20453540862a9c62778504476f6756755cb33bcd6c38c2"
          ],
          "data": "0x000000000000000000000000000000000000000000000000de41ba4fc9d91ad90000000000000000000000000000000000000000000000000000000000000100000000000000000000000000000000000000000000000000000000000000000000000000000000000000000000000000000000000000000000000000000000000000000000000000000000000000000000000000000000000000000000000000000000000000000000000000000000000000000000000000000000000000000000000000000000000000000000000000000000000000000000000000000000000000000000000000000000000000000000000000000000000000000000000000000000000000000000000000000000000000000000000000000000000000002000000000000000000000000007be491c4626a052cd583413021ce2ce6c0450f7",
          "blockHash": "0x71a15e214851a6ca69589492d1a1d884d3bf95c6d63a58e97b6ffaef9a5b75af",
          "blockNumber": "0x21fe94d",
          "blockTimestamp": "0x6953317a",
          "transactionHash": "0x0f3d98189fe71e508caaf63178ed0e2074fb91fb355549e978e1c0cb594b695a",
          "transactionIndex": "0x9",
          "logIndex": "0x16",
          "removed": false
        }
      ],
      "logsBloom": "0x00000000000000400000000000000000000000000000000000000000000000000000000000004000000000000000000000000000000000000004000000000004000000000000000000000000000000000000000040000000000000000000000000000000000000000000000000010000000000000000000000000000000000400000000000000000000000000000000000000020000000000000000000000000000000000000080000000000000000000000000000000000000000000000000000000000000000000000000000000000000000000000000100000000000000000000000000000000000000000000000000000000008000000100000000000000",
      "type": "0x2",
      "transactionHash": "0x0f3d98189fe71e508caaf63178ed0e2074fb91fb355549e978e1c0cb594b695a",
      "transactionIndex": "0x9",
      "blockHash": "0x71a15e214851a6ca69589492d1a1d884d3bf95c6d63a58e97b6ffaef9a5b75af",
      "blockNumber": "0x21fe94d",
      "gasUsed": "0x4f696",
      "effectiveGasPrice": "0x124f80",
      "blobGasUsed": "0xbbb0",
      "from": "0x70f33e33c1108844cd0315865c6d4cc38df027f3",
      "to": "0xc189cdfaa1ec9840c195cd8686651b321f412c79",
      "contractAddress": null,
      "daFootprintGasScalar": "0x138",
      "l1BaseFeeScalar": "0x44d",
      "l1BlobBaseFee": "0x3d3",
      "l1BlobBaseFeeScalar": "0xa118b",
      "l1Fee": "0x20037",
      "l1GasPrice": "0x2c8e",
      "l1GasUsed": "0x9ad"
    }
  ],
  "libraries": [],
  "pending": [],
  "returns": {},
  "timestamp": 1767059833240,
  "chain": 84532,
  "commit": null
}