{
  "transactions": [
    {
      "hash": "0xc0b5e40eb1f67e1a507c8b2c46ead53b9f6d4e320dc6b8e43261232e4ce315a3",
      "transactionType": "CALL",
      "contractName": null,
      "contractAddress": "0x3bf2ebe9145853394a5da8d8a1362ac42d425773",
      "function": "applyChainUpdates(uint64[],(uint64,bytes[],bytes,(bool,uint128,uint128),(bool,uint128,uint128))[])",
      "arguments": [
        "[]",
        "[(16015286601757825753, [0x00000000000000000000000007be491c4626a052cd583413021ce2ce6c0450f7], 0x0000000000000000000000000761f77e85244287b33343160dce981a961ab89e, (false, 0, 0), (false, 0, 0))]"
      ],
      "transaction": {
        "from": "0x70f33e33c1108844cd0315865c6d4cc38df027f3",
        "to": "0x3bf2ebe9145853394a5da8d8a1362ac42d425773",
        "gas": "0x7424c",
        "value": "0x0",
        "input": "0xe8a1da1700000000000000000000000000000000000000000000000000000000000000400000000000000000000000000000000000000000000000000000000000000060000000000000000000000000000000000000000000000000000000000000000000000000000000000000000000000000000000000000000000000000000000010000000000000000000000000000000000000000000000000000000000000020000000000000000000000000000000000000000000000000de41ba4fc9d91ad9000000000000000000000000000000000000000000000000000000000000012000000000000000000000000000000000000000000000000000000000000001a000000000000000000000000000000000000000000000000000000000000000000000000000000000000000000000000000000000000000000000000000000000000000000000000000000000000000000000000000000000000000000000000000000000000000000000000000000000000000000000000000000000000000000000000000000000000000000000000000000000000000000000000000000000000000000000000000000000000000000000000000000000000000000000000000000000000000000000000000000000000000000000000000000000000000010000000000000000000000000000000000000000000000000000000000000020000000000000000000000000000000000000000000000000000000000000002000000000000000000000000007be491c4626a052cd583413021ce2ce6c0450f700000000000000000000000000000000000000000000000000000000000000200000000000000000000000000761f77e85244287b33343160dce981a961ab89e",
        "nonce": "0xb",
        "chainId": "0x14a34"
      },
      "additionalContracts": [],
      "isFixedGasLimit": false
    }
  ],
  "receipts": [
    {
      "status": "0x1",
      "cumulativeGasUsed": "0xb09fd7",
      "logs": [
        {
          "address": "0x3bf2ebe9145853394a5da8d8a1362ac42d425773",
          "topics": [
            "0x7d628c9a1796743d365ab521a8b2a4686e419b3269919dc9145ea2ce853b54ea",
            "0x000000000000000000000000000000000000000000000000de41ba4fc9d91ad9"
          ],
          "data": "0x0000000000000000000000000000000000000000000000000000000000000020000000000000000000000000000000000000000000000000000000000000002000000000000000000000000007be491c4626a052cd583413021ce2ce6c0450f7",
          "blockHash": "0xf60dd261371e5c21208ef7fcee7249f3384ddbd236a52155bc1f44e4984af808",
          "blockNumber": "0x21fe70d",
          "blockTimestamp": "0x69532cfa",
          "transactionHash": "0xc0b5e40eb1f67e1a507c8b2c46ead53b9f6d4e320dc6b8e43261232e4ce315a3",
          "transactionIndex": "0x11",
          "logIndex": "0x171",
          "removed": false
        },
        {
          "address": "0x3bf2ebe9145853394a5da8d8a1362ac42d425773",
          "topics": [
            "0x8d340f17e19058004c20453540862a9c62778504476f6756755cb33bcd6c38c2"
          ],
          "data": "0x000000000000000000000000000000000000000000000000de41ba4fc9d91ad9000000000000000000000000000000000000000000000000000000000000010000000000000000000000000000000000000000000000000000000000000000000000000000000000000000000000000000000000000000000000000000000000000000000000000000000000000000000000000000000000000000000000000000000000000000000000000000000000000000000000000000000000000000000000000000000000000000000000000000000000000000000000000000000000000000000000000000000000000000000000000000000000000000000000000000000000000000000000000000000000000000000000000000000000000000200000000000000000000000000761f77e85244287b33343160dce981a961ab89e",
          "blockHash": "0xf60dd261371e5c21208ef7fcee7249f3384ddbd236a52155bc1f44e4984af808",
          "blockNumber": "0x21fe70d",
          "blockTimestamp": "0x69532cfa",
          "transactionHash": "0xc0b5e40eb1f67e1a507c8b2c46ead53b9f6d4e320dc6b8e43261232e4ce315a3",
          "transactionIndex": "0x11",
          "logIndex": "0x172",
          "removed": false
        }
      ],
      "logsBloom": "0x00000000000000400000000000020000000000000000000000000000000000000000000000004000000000000000000000000000000000000004000000000004000000000000000000000000000000000000000000000000000000000000000000000000000000000000000000010000000000000000000000000000000000400000000000000000000000000000000000400020000000000000000000000000000000000000000000000000000000000000000000000000000000000000000000000000000000000080000000000000000000000000000000000000000000000000000000000000000000000000000000000000008000000100000000000000",
      "type": "0x2",
      "transactionHash": "0xc0b5e40eb1f67e1a507c8b2c46ead53b9f6d4e320dc6b8e43261232e4ce315a3",
      "transactionIndex": "0x11",
      "blockHash": "0xf60dd261371e5c21208ef7fcee7249f3384ddbd236a52155bc1f44e4984af808",
      "blockNumber": "0x21fe70d",
      "gasUsed": "0x4f6a2",
      "effectiveGasPrice": "0x124f80",
      "blobGasUsed": "0xba78",
      "from": "0x70f33e33c1108844cd0315865c6d4cc38df027f3",
      "to": "0x3bf2ebe9145853394a5da8d8a1362ac42d425773",
      "contractAddress": null,
      "daFootprintGasScalar": "0x138",
      "l1BaseFeeScalar": "0x44d",
      "l1BlobBaseFee": "0xc61",
      "l1BlobBaseFeeScalar": "0xa118b",
      "l1Fee": "0x73817",
      "l1GasPrice": "0xd996",
      "l1GasUsed": "0x99f"
    }
  ],
  "libraries": [],
  "pending": [],
  "returns": {},
  "timestamp": 1767058683620,
  "chain": 84532,
  "commit": null
}